S023000041546D65676131365F4B65797061645F496E746572666163696E672E73726563E5
S11300000C942A000C9447000C9447000C9447006D
S11300100C9447000C9447000C9447000C94470040
S11300200C9447000C9447000C9447000C94470030
S11300300C9447000C9447000C9447000C94470020
S11300400C9447000C9447000C9447000C94470010
S11300500C94470011241FBECFE5D4E0DEBFCDBF12
S113006010E0A0E6B0E0E8EFF2E002C005900D92E7
S1130070AC37B107D9F720E0ACE7B0E001C01D927E
S1130080AE37B207E1F70E94D9000C947A010C94C0
S1130090000030EF2FEF9FEE6FED5FEB4FE73ABBC1
S11300A02BBB8BB38F708BBB000089B38F70809395
S11300B07C008F30B1F7EFE3FCE93197F1F700C032
S11300C0000089B38F7080937C008F30A1F3FFEF21
S11300D079EF80E0F15070408040E1F700C000000B
S11300E089B38F7080937C008F3029F39BBB000011
S11300F089B38F7080937C008F3019F010927D004B
S113010024C06BBB000089B38F7080937C008F3058
S113011021F081E080937D0018C05BBB000089B3AF
S11301208F7080937C008F3021F082E080937D007B
S11301300CC04BBB000089B38F7080937C008F3060
S113014009F4ADCF83E080937D0080917C008E30F4
S113015059F4E0917D00F0E0EE0FFF1FEE0FFF1F5A
S1130160E05AFF4F808108958D3059F4E0917D006D
S1130170F0E0EE0FFF1FEE0FFF1FE05AFF4F8181EB
S113018008958B3059F4E0917D00F0E0EE0FFF1FED
S1130190EE0FFF1FE05AFF4F82810895E0917D002A
S11301A0F0E0EE0FFF1FEE0FFF1FE05AFF4F8381B9
S11301B008950E943B0140E750E060E081E00E9426
S11301C0620180EC0E94E9000E9449000E94120131
S11301D0F8CF98B3282F207F9F70922B98BBC0989C
S11301E0C19A32E03A95F1F700C0C198E7ECF0E02B
S11301F03197F1F700C0000028B3F0E18F9FC001F0
S11302001124922F9F70892B88BBC19A32E03A95B2
S1130210F1F700C0C1988FE99FE00197F1F700C0A2
S11302200000089598B3282F207F9F70922B98BBCD
S1130230C09AC19A32E03A95F1F700C0C198E7EC50
S1130240F0E03197F1F700C0000028B3F0E18F9F90
S1130250C0011124922F9F70892B88BBC19A32E070
S11302603A95F1F700C0C1988FE99FE00197F1F743
S113027000C0000008958FEF87BB8FE39CE90197CE
S1130280F1F700C0000082E00E94E90088E20E94C9
S1130290E9008CE00E94E90081E00E94E90082E824
S11302A00E94E9000895CF93DF93EC0188818823AD
S11302B031F021960E94120189918111FBCFDF91C7
S11302C0CF910895CF93DF93EA01813031F4862FE3
S11302D08F7080680E94E90007C0823029F4862F5D
S11302E08F70806C0E94E900CE010E945301DF915F
S10B02F0CF910895F894FFCFAB
S11302F83738392F3435362A3132332D20303D2BD7
S10F030850726573732061206B657900EE
S9030000FC
