S01200004D43415F657870745F372E737265638B
S11300000C942A000C9452000C9447000C94470062
S11300100C9447000C9447000C9447000C94470040
S11300200C9447000C9447000C9447000C94470030
S11300300C9447000C9447000C9447000C94470020
S11300400C9447000C9447000C9447000C94470010
S11300500C94470011241FBECFE5D8E0DEBFCDBF0E
S113006010E0A0E6B0E0ECECF0E002C005900D92E8
S1130070A036B107D9F710E0A0E6B0E001C01D92A8
S1130080A036B107E1F70E9449000C9464000C9477
S11300900000A39A84E082BB81E085BF80E48BBF2B
S11300A07894FFCF1F920F920FB60F9211248F9363
S11300B09F9395B388E0892785BB9F918F910F907B
S10F00C00FBE0F901F901895F894FFCF0E
S9030000FC
