S01200004D43415F657870745F332E737265638F
S11300000C942A000C9447000C9447000C9447006D
S11300100C9447000C9447000C9447000C94470040
S11300200C9447000C9447000C9447000C94470030
S11300300C9447000C9447000C9447000C94470020
S11300400C9447000C9447000C9447000C94470010
S11300500C94470011241FBECFE5D4E0DEBFCDBF12
S113006010E0A0E6B0E0EEECF0E002C005900D92E6
S1130070A036B107D9F710E0A0E6B0E001C01D92A8
S1130080A036B107E1F70E9449000C9465000C9476
S113009000008FEF8ABB87B38C7F87BB45E530EFC9
S11300A02FE09AEA86B38370813049F0813028F0DA
S11300B0823039F08330B1F706C04BBBF3CF9BBB22
S11100C0F1CF3BBBEFCF2BBBEDCFF894FFCFBE
S9030000FC
