S01200004D43415F657870745F362E737265638C
S11300000C942A000C9447000C9447000C9447006D
S11300100C9453000C9447000C9447000C94470034
S11300200C9447000C9447000C9447000C94470030
S11300300C9447000C9447000C9447000C94470020
S11300400C9447000C9447000C9447000C94470010
S11300500C94470011241FBECFE5D8E0DEBFCDBF0E
S113006010E0A0E6B0E0E6EBF0E002C005900D92EF
S1130070A036B107D9F710E0A0E6B0E001C01D92A8
S1130080A036B107E1F70E9449000C9459000C9482
S11300900000B99A8AE283BD789489B7806889BFE1
S11300A08BE185BDFFCF98B382E0892788BB789424
S10900B00895F894FFCF4F
S9030000FC
