S01D000053696E676C65207570636F756E74657220377365672E737265630A
S11300000C942A000C9447000C9447000C9447006D
S11300100C9447000C9447000C9447000C94470040
S11300200C9447000C9447000C9447000C94470030
S11300300C9447000C9447000C9447000C94470020
S11300400C9447000C9447000C9447000C94470010
S11300500C94470011241FBECFE5D8E0DEBFCDBF0E
S113006010E0A0E6B0E0EEEDF0E002C005900D92E5
S1130070AA36B107D9F710E0AAE6B0E001C01D9294
S1130080AC36B107E1F70E9449000C946D000C9462
S1130090000081B320E630E010926B0010926A00F9
S11300A080E090E0820F931FDC018C9182BB8FE390
S11300B09DE0A3E081509040A040E1F700C0000023
S11300C080916A0090916B00019690936B008093ED
S11100D06A008A30910500F7E5CFF894FFCF5F
S10D00DE3F065B4F660D7D077F6F40
S9030000FC
