:100000000C942A000C9447000C9447000C94470071
:100010000C9447000C9447000C9447000C94470044
:100020000C9447000C9447000C9447000C94470034
:100030000C9447000C9447000C9447000C94470024
:100040000C9447000C9447000C9447000C94470014
:100050000C94470011241FBECFE5D4E0DEBFCDBF16
:1000600010E0A0E6B0E0E8E6F3E002C005900D92F3
:10007000AA36B107D9F710E0AAE6B0E001C01D9298
:10008000AA36B107E1F70E9449000C94B2010C9422
:100090000000CF93DF93CDB7DEB72E970FB6F8945D
:1000A000DEBF0FBECDBF8FEF87BB8ABB14BA81BB4B
:1000B000DE011196E0E6F0E08AE001900D928150B9
:1000C000E1F78FEF85BB82BB1E861D861C861B86D3
:1000D000442455240F2EF8EE2F2EF3E03F2EF02D62
:1000E0000F2EFAE08F2E9924F02D41E012E004E06B
:1000F000FF246894F3F807C01C861B860F2EF3E6D6
:100100004F2E5524F02D83B390E08E3F910541F49E
:10011000EB85FC8527E2E031F2070CF440C076C0A5
:100120008F3F910581F77AC04BBBF601808188BB78
:1001300089EF90E00197F1F700C000001BBA1BBBEC
:10014000FB01808188BB89EF90E00197F1F700C047
:1001500000001BBA0BBB8C9188BBE9EFF0E0319734
:10016000F1F700C000001BBAFBBAF301808188BB25
:1001700089EF90E00197F1F700C000001BBA83B34C
:100180008F3F09F44AC02150304071F60894A11CF9
:10019000B11C90E1A91697E2B90619F437C0AB84F7
:1001A000BC84C501B1010E948B016B01C50164E6ED
:1001B00070E00E948B019C01CB01B4010E948B0175
:1001C000FC01C901B4010E948B013B01C501B401CE
:1001D0000E948B012BE030E061E070E06C0F7D1F2E
:1001E000C60ED71E61E070E06C0F7D1F6E0F7F1F83
:1001F000A1E0B0E0AC0FBD1FA60DB71DE1E0F0E03F
:10020000EC0FFD1FE80FF91F3F018ECFED85FE8536
:10021000E130F10509F077CF6FCF2501C201B101BF
:100220000E948B016B01C20164E670E00E948B01A9
:100230009C01CB01B4010E948B01FC01C901B401F6
:100240000E948B019B01C201B4010E948B010F2E01
:10025000F9E8AF2EF3E1BF2EF02D61E070E06C0FF6
:100260007D1FC60ED71E61E070E06C0F7D1F6E0F04
:100270007F1FA1E0B0E0AC0FBD1FA20FB31FE1E0F4
:10028000F0E0EC0FFD1FE80FF91F41C04BBBF6017A
:10029000808188BB89EF90E00197F1F700C00000F2
:1002A0001BBA1BBBFB01808188BB89EF90E00197E3
:1002B000F1F700C000001BBA0BBB8C9188BBE9EFC3
:1002C000F0E03197F1F700C000001BBAFBBAF30170
:1002D000808188BB89EF90E00197F1F700C00000B2
:1002E0001BBA83B38E3F41F4ED85FE853196FE87C0
:1002F000ED875C864B8607CF2150304039F6F301FD
:100300000894A108B108A114B10409F4FCCE25EFAA
:1003100031E03F01BBCF97FB092E07260AD077FDBE
:1003200004D00CD006D000201AF4709561957F4F50
:100330000895F6F7909581959F4F0895AA1BBB1BD2
:1003400051E107C0AA1FBB1FA617B70710F0A61BD5
:10035000B70B881F991F5A95A9F780959095BC01F6
:08036000CD010895F894FFCFD0
:0A036800C0F9A4B0999282F88090C9
:00000001FF
