S02B0000313865633036385F696E74657266616365645F6B65797061645F6C63645F66696E616C2E73726563DE
S11300000C942A000C9447000C9447000C9447006D
S11300100C9447000C9447000C9447000C94470040
S11300200C9447000C9447000C9447000C94470030
S11300300C9447000C9447000C9447000C94470020
S11300400C9447000C9447000C9447000C94470010
S11300500C94470011241FBECFE5D8E0DEBFCDBF0E
S113006010E0A0E6B0E0EEECF2E002C005900D92E4
S1130070AE37B107D9F710E0AEE7B0E001C01D928A
S1130080A038B107E1F70E94BD000C9465010C94FF
S1130090000030EF2FEF9FEE4FED5FEB6FE73ABBC1
S11300A02BBB8BB38F708BBB000089B38F70809395
S11300B07E008F30B1F79BBB000089B38F708093B3
S11300C07E008F3019F010927F0023C04BBB0000DC
S11300D089B38F7080937E008F3021F081E080930C
S11300E07F0017C05BBB000089B38F7080937E00D4
S11300F08F3021F082E080937F000BC06BBB000047
S113010089B38F7080937E008F3049F283E08093AF
S11301107F0080917E008E3059F4E0917F00F0E002
S1130120EE0FFF1FEE0FFF1FE259FF4F808108956E
S11301308D3059F4E0917F00F0E0EE0FFF1FEE0FD9
S1130140FF1FE259FF4F818108958B3059F4E091EC
S11301507F00F0E0EE0FFF1FEE0FFF1FE259FF4F8D
S113016082810895E0917F00F0E0EE0FFF1FEE0F13
S1130170FF1FE259FF4F838108950E94190181E016
S113018060E040E650E00E94400180EC0E94CD0017
S11301900E9449000E94F300F8CF98B3282F207FD3
S11301A09F70922B98BBC098C19A92E09A95F1F7F0
S11301B000C0C198E7ECF0E03197F1F700C000000F
S11301C098B38295807F9F70892B88BBC19AF2E097
S11301D0FA95F1F700C0C1988FE99FE00197F1F714
S11301E000C00000089598B3282F207F9F70922BA1
S11301F098BBC09AC19A92E09A95F1F700C0C19851
S1130200E7ECF0E03197F1F700C0000098B3829575
S1130210807F9F70892B88BBC19AF2E0FA95F1F731
S113022000C0C1988FE99FE00197F1F700C000007A
S113023008958FEF87BB8FE39CE90197F1F700C026
S1130240000082E00E94CD0088E20E94CD008CE094
S11302500E94CD0081E00E94CD0082E80E94CD0082
S11302600895CF93DF93EC018881882331F02196A0
S11302700E94F30089918823D9F7DF91CF910895E3
S1130280CF93DF93EA01813031F4862F8F70806839
S11302900E94CD0007C0823029F4862F8F70806CB5
S11302A00E94CD00CE010E943101DF91CF910895CB
S11302B081E00E94CD008FE697E10197F1F700C03D
S11102C0000080E80E94CD000895F894FFCF5E
S11302CE507265737320616E79206B6579003738CF
S11102DE392F3435362A3132332D20303D2B62
S9030000FC
