:100000000C942A000C9447000C9447000C94470071
:100010000C9447000C9447000C9447000C94470044
:100020000C9447000C9447000C9447000C94470034
:100030000C9447000C9447000C9447000C94470024
:100040000C9447000C9447000C9447000C94470014
:100050000C94470011241FBECFE5D8E0DEBFCDBF12
:1000600010E0A0E6B0E0E2E0F1E002C005900D9201
:10007000A837B107D9F710E0A8E7B0E001C01D929A
:10008000A837B107E1F70E9449000C947F000C9457
:100090000000CF93DF93CDB7DEB768970FB6F89423
:1000A000DEBF0FBECDBFDE011D96E0E6F0E08CE0C6
:1000B00001900D928150E1F7DE011196ECE6F0E03F
:1000C0008CE001900D928150E1F75FEF9E01235F7C
:1000D0003F4FB9015ABB57BBFE013196D901408150
:1000E000329648BB4C9112964BBB89EF90E001973A
:1000F000F1F700C00000E617F70789F7EBCFF89497
:02010000FFCF2F
:10010200FE000900090009000900FE00FD00FB00D5
:08011200F700EF00DF00BF0061
:00000001FF
