:100000000C942A000C9447000C9447000C94470071
:100010000C9447000C9447000C9447000C94470044
:100020000C9447000C9447000C9447000C94470034
:100030000C9447000C9447000C9447000C94470024
:100040000C9447000C9447000C9447000C94470014
:100050000C94470011241FBECFE5D8E0DEBFCDBF12
:1000600010E0A0E6B0E0E4E8F2E002C005900D92F6
:10007000AC36B107D9F710E0ACE6B0E001C01D9294
:10008000A337B107E1F70E9449000C9440010C949A
:1000900000008FEF87BB84B3836084BB8AB3837017
:1000A0008ABB83E08BBBEAE0F0E021E630E041E090
:1000B000C2E00FE610E0D3E689B38370823009F026
:1000C0005EC089B38370823009F059C080916C00A2
:1000D00090E09093700080936F00843691050CF04F
:1000E00047C0109272001092710045BB80916F0062
:1000F00090917000BF010E941901620F731FDB0114
:100100005C9158BBA3ECB9E01197F1F700C0000077
:10011000C5BB820F931FDC018C9188BB83EC99E0F7
:100120000197F1F700C0000089B38370823039F085
:10013000D8018C9180936C0040936000BDCF80917A
:1001400071009091720001969093720080937100FB
:100150008233910554F280916F0090917000019666
:100160009093700080936F00843691050CF4B9CFA2
:1001700010926C0089B38370823009F4A7CF89B3E1
:100180008370813009F098CF4CC0809160008093DB
:100190006F0010927000109272001092710045BBB7
:1001A00080916F0090917000BF010E941901620F51
:1001B000731FDB015C9158BBA3ECB9E01197F1F719
:1001C00000C00000C5BB820F931FDC018C9188BB6F
:1001D00083EC99E00197F1F700C0000089B38370C8
:1001E000813039F0D8018C9180936C00409360008D
:1001F00063CF80917100909172000196909372008C
:10020000809371008233910554F280916F00909138
:10021000700001979093700080936F0099230CF009
:10022000BACF89B38370813009F4AFCFD093600027
:1002300043CF97FB092E07260AD077FD04D00CD0B8
:1002400006D000201AF4709561957F4F0895F6F757
:10025000909581959F4F0895AA1BBB1B51E107C044
:10026000AA1FBB1FA617B70710F0A61BB70B881F46
:10027000991F5A95A9F780959095BC01CD010895D5
:04028000F894FFCF20
:0C028400633F065B4F666D7D077F6F00D7
:00000001FF
