S01000006C65645F746573742E73726563C0
S11300000C942A000C9447000C9447000C9447006D
S11300100C9447000C9447000C9447000C94470040
S11300200C9447000C9447000C9447000C94470030
S11300300C9447000C9447000C9447000C94470020
S11300400C9447000C9447000C9447000C94470010
S11300500C94470011241FBECFE5D8E0DEBFCDBF0E
S113006010E0A0E6B0E0E8EBF0E002C005900D92ED
S1130070A036B107D9F710E0A0E6B0E001C01D92A8
S1130080A036B107E1F70E9449000C945A000C9481
S113009000008FEF84BB85BBE7EAF1E63197F1F707
S11300A000C0000015BAE7EAF1E63197F1F700C0A5
S10B00B00000F1CFF894FFCF2A
S9030000FC
