S0110000696E746572727570742E7372656326
S11300000C942A000C9469000C9447000C9447004B
S11300100C9447000C9447000C9447000C94470040
S11300200C9447000C9447000C9447000C94470030
S11300300C9447000C9447000C9447000C94470020
S11300400C9447000C9447000C9447000C94470010
S11300500C94470011241FBECFE5D8E0DEBFCDBF0E
S113006010E0A0E6B0E0EAEFF0E002C005900D92E7
S1130070A036B107D9F710E0A0E6B0E001C01D92A8
S1130080A036B107E1F70E9449000C947B000C9460
S1130090000088E084BB929A8FEF8ABB82E085BF20
S11300A080E48BBF78948FEF8BBB2FE33DE043E07C
S11300B0215030404040E1F700C000001BBA2FE35C
S11300C03DE043E0215030404040E1F700C00000F3
S11300D0EBCF1F920F920FB60F9211248F939F9321
S11300E095B388E0892785BB9F918F910F900FBEB0
S10D00F00F901F901895F894FFCFAD
S9030000FC
